{"abi":[{"type":"function","name":"decrement","inputs":[],"outputs":[],"stateMutability":"nonpayable"},{"type":"function","name":"endpoint","inputs":[],"outputs":[{"name":"","type":"address","internalType":"address"}],"stateMutability":"view"},{"type":"function","name":"increment","inputs":[],"outputs":[],"stateMutability":"nonpayable"},{"type":"function","name":"initialize","inputs":[{"name":"_value","type":"uint256","internalType":"uint256"}],"outputs":[],"stateMutability":"nonpayable"},{"type":"function","name":"value","inputs":[],"outputs":[{"name":"","type":"uint256","internalType":"uint256"}],"stateMutability":"view"},{"type":"event","name":"Initialized","inputs":[{"name":"version","type":"uint64","indexed":false,"internalType":"uint64"}],"anonymous":false},{"type":"error","name":"InvalidInitialization","inputs":[]},{"type":"error","name":"NotInitializing","inputs":[]}],"bytecode":{"object":"0x60a0604052611337608052348015601557600080fd5b506080516102a46100306000396000608701526102a46000f3fe608060405234801561001057600080fd5b50600436106100575760003560e01c80632baeceb71461005c5780633fa4f245146100665780635e280f1114610082578063d09de08a146100c1578063fe4b84df146100c9575b600080fd5b6100646100dc565b005b61006f60005481565b6040519081526020015b60405180910390f35b6100a97f000000000000000000000000000000000000000000000000000000000000000081565b6040516001600160a01b039091168152602001610079565b6100646100f5565b6100646100d7366004610213565b610107565b60016000808282546100ee9190610242565b9091555050565b60016000808282546100ee919061025b565b7ff0c57e16840df040f15088dc2f81fe391c3923bec73e23a9662efc9c229c6a008054600160401b810460ff16159067ffffffffffffffff1660008115801561014d5750825b905060008267ffffffffffffffff16600114801561016a5750303b155b905081158015610178575080155b156101965760405163f92ee8a960e01b815260040160405180910390fd5b845467ffffffffffffffff1916600117855583156101c057845460ff60401b1916600160401b1785555b6000869055831561020b57845460ff60401b19168555604051600181527fc7f505b2f371ae2175ee4913f4499e1f2633a7b5936321eed1cdaeb6115181d29060200160405180910390a15b505050505050565b60006020828403121561022557600080fd5b5035919050565b634e487b7160e01b600052601160045260246000fd5b818103818111156102555761025561022c565b92915050565b808201808211156102555761025561022c56fea2646970667358221220017dd2f32e898be0d21ac55bb4a4fba41f12a5366b2051ef3d2df8dcdf1fc1c964736f6c63430008190033","linkReferences":{}},"methodIdentifiers":{"decrement()":"2baeceb7","endpoint()":"5e280f11","increment()":"d09de08a","initialize(uint256)":"fe4b84df","value()":"3fa4f245"},"id":36}