{"abi":[{"type":"function","name":"decrement","inputs":[],"outputs":[],"stateMutability":"nonpayable"},{"type":"function","name":"endpoint","inputs":[],"outputs":[{"name":"","type":"address","internalType":"address"}],"stateMutability":"view"},{"type":"function","name":"increment","inputs":[],"outputs":[],"stateMutability":"nonpayable"},{"type":"function","name":"initialize","inputs":[{"name":"_value","type":"uint256","internalType":"uint256"}],"outputs":[],"stateMutability":"nonpayable"},{"type":"function","name":"value","inputs":[],"outputs":[{"name":"","type":"uint256","internalType":"uint256"}],"stateMutability":"view"},{"type":"event","name":"Initialized","inputs":[{"name":"version","type":"uint64","indexed":false,"internalType":"uint64"}],"anonymous":false},{"type":"error","name":"InvalidInitialization","inputs":[]},{"type":"error","name":"NotInitializing","inputs":[]}],"bytecode":{"object":"0x60a0604052614141608052348015601557600080fd5b5060805161026f61003060003960006087015261026f6000f3fe608060405234801561001057600080fd5b50600436106100575760003560e01c80632baeceb71461005c5780633fa4f245146100665780635e280f1114610082578063d09de08a1461005c578063fe4b84df146100c1575b600080fd5b6100646100d4565b005b61006f60005481565b6040519081526020015b60405180910390f35b6100a97f000000000000000000000000000000000000000000000000000000000000000081565b6040516001600160a01b039091168152602001610079565b6100646100cf3660046101f9565b6100ed565b60016000808282546100e69190610212565b9091555050565b7ff0c57e16840df040f15088dc2f81fe391c3923bec73e23a9662efc9c229c6a008054600160401b810460ff16159067ffffffffffffffff166000811580156101335750825b905060008267ffffffffffffffff1660011480156101505750303b155b90508115801561015e575080155b1561017c5760405163f92ee8a960e01b815260040160405180910390fd5b845467ffffffffffffffff1916600117855583156101a657845460ff60401b1916600160401b1785555b600086905583156101f157845460ff60401b19168555604051600181527fc7f505b2f371ae2175ee4913f4499e1f2633a7b5936321eed1cdaeb6115181d29060200160405180910390a15b505050505050565b60006020828403121561020b57600080fd5b5035919050565b8082018082111561023357634e487b7160e01b600052601160045260246000fd5b9291505056fea2646970667358221220bf851d6f866663cf800035dd663f952915a98cd5ea3596a7153b1121ac5993b264736f6c63430008190033","linkReferences":{}},"methodIdentifiers":{"decrement()":"2baeceb7","endpoint()":"5e280f11","increment()":"d09de08a","initialize(uint256)":"fe4b84df","value()":"3fa4f245"},"id":36}